{
    "_format": "hh-sol-artifact-1",
    "contractName": "State",
    "sourceName": "contracts/State.sol",
    "abi": [
        {
            "inputs": [],
            "stateMutability": "nonpayable",
            "type": "constructor"
        },
        {
            "inputs": [],
            "name": "getState",
            "outputs": [
                {
                    "internalType": "bool",
                    "name": "",
                    "type": "bool"
                }
            ],
            "stateMutability": "view",
            "type": "function"
        },
        {
            "inputs": [],
            "name": "turnOff",
            "outputs": [
                {
                    "internalType": "bool",
                    "name": "",
                    "type": "bool"
                }
            ],
            "stateMutability": "nonpayable",
            "type": "function"
        },
        {
            "inputs": [],
            "name": "turnOn",
            "outputs": [
                {
                    "internalType": "bool",
                    "name": "",
                    "type": "bool"
                }
            ],
            "stateMutability": "nonpayable",
            "type": "function"
        }
    ],
    "bytecode": "0x6080604052348015600f57600080fd5b5060008060006101000a81548160ff02191690831515021790555061017f806100396000396000f3fe608060405234801561001057600080fd5b50600436106100415760003560e01c80631865c57d14610046578063af10c81014610064578063ba33ed7d14610082575b600080fd5b61004e6100a0565b60405161005b919061012e565b60405180910390f35b61006c6100b6565b604051610079919061012e565b60405180910390f35b61008a6100e4565b604051610097919061012e565b60405180910390f35b60008060009054906101000a900460ff16905090565b6000806000806101000a81548160ff02191690831515021790555060008054906101000a900460ff16905090565b600060016000806101000a81548160ff02191690831515021790555060008054906101000a900460ff16905090565b60008115159050919050565b61012881610113565b82525050565b6000602082019050610143600083018461011f565b9291505056fea26469706673582212203a021e464b200d75049506ae6edcb97f0535559278f2ea35ba900fd963d81a9d64736f6c634300081b0033",
    "linkReferences": {},
    "deployedLinkReferences": {}
}