{
  "_format": "hh-sol-artifact-1",
  "contractName": "TrafficViolation",
  "sourceName": "contracts/TrafficViolation.sol",
  "abi": [
    {
      "inputs": [],
      "stateMutability": "nonpayable",
      "type": "constructor"
    },
    {
      "anonymous": false,
      "inputs": [
        {
          "indexed": false,
          "internalType": "string",
          "name": "plateNumber",
          "type": "string"
        },
        {
          "indexed": false,
          "internalType": "uint256",
          "name": "amount",
          "type": "uint256"
        },
        {
          "indexed": false,
          "internalType": "uint256",
          "name": "timestamp",
          "type": "uint256"
        }
      ],
      "name": "FinePaid",
      "type": "event"
    },
    {
      "anonymous": false,
      "inputs": [
        {
          "indexed": false,
          "internalType": "string",
          "name": "icNumber",
          "type": "string"
        },
        {
          "indexed": false,
          "internalType": "string",
          "name": "plateNumber",
          "type": "string"
        }
      ],
      "name": "PlateNumberRegistered",
      "type": "event"
    },
    {
      "anonymous": false,
      "inputs": [
        {
          "indexed": false,
          "internalType": "string",
          "name": "plateNumber",
          "type": "string"
        },
        {
          "indexed": false,
          "internalType": "uint256",
          "name": "timestamp",
          "type": "uint256"
        }
      ],
      "name": "ViolationRecorded",
      "type": "event"
    },
    {
      "inputs": [
        {
          "internalType": "string",
          "name": "_plateNumber",
          "type": "string"
        },
        {
          "internalType": "string",
          "name": "_color",
          "type": "string"
        },
        {
          "internalType": "string",
          "name": "_brand",
          "type": "string"
        },
        {
          "internalType": "string",
          "name": "_timestamp",
          "type": "string"
        }
      ],
      "name": "addViolationRecord",
      "outputs": [],
      "stateMutability": "nonpayable",
      "type": "function"
    },
    {
      "inputs": [],
      "name": "defaultFineAmount",
      "outputs": [
        {
          "internalType": "uint256",
          "name": "",
          "type": "uint256"
        }
      ],
      "stateMutability": "view",
      "type": "function"
    },
    {
      "inputs": [
        {
          "internalType": "string",
          "name": "_icNumber",
          "type": "string"
        }
      ],
      "name": "getPlateNumbersByIC",
      "outputs": [
        {
          "internalType": "string[]",
          "name": "",
          "type": "string[]"
        }
      ],
      "stateMutability": "view",
      "type": "function"
    },
    {
      "inputs": [
        {
          "internalType": "string",
          "name": "_plateNumber",
          "type": "string"
        }
      ],
      "name": "getTotalUnpaidFines",
      "outputs": [
        {
          "internalType": "uint256",
          "name": "",
          "type": "uint256"
        }
      ],
      "stateMutability": "view",
      "type": "function"
    },
    {
      "inputs": [
        {
          "internalType": "string",
          "name": "_plateNumber",
          "type": "string"
        }
      ],
      "name": "getViolationCount",
      "outputs": [
        {
          "internalType": "uint256",
          "name": "",
          "type": "uint256"
        }
      ],
      "stateMutability": "view",
      "type": "function"
    },
    {
      "inputs": [
        {
          "internalType": "string",
          "name": "_plateNumber",
          "type": "string"
        },
        {
          "internalType": "uint256",
          "name": "_index",
          "type": "uint256"
        }
      ],
      "name": "getViolationRecord",
      "outputs": [
        {
          "internalType": "string",
          "name": "plateNumber",
          "type": "string"
        },
        {
          "internalType": "string",
          "name": "color",
          "type": "string"
        },
        {
          "internalType": "string",
          "name": "brand",
          "type": "string"
        },
        {
          "internalType": "string",
          "name": "timestamp",
          "type": "string"
        },
        {
          "internalType": "bool",
          "name": "isPaid",
          "type": "bool"
        },
        {
          "internalType": "uint256",
          "name": "fineAmount",
          "type": "uint256"
        }
      ],
      "stateMutability": "view",
      "type": "function"
    },
    {
      "inputs": [
        {
          "internalType": "string",
          "name": "",
          "type": "string"
        },
        {
          "internalType": "uint256",
          "name": "",
          "type": "uint256"
        }
      ],
      "name": "icToPlateNumbers",
      "outputs": [
        {
          "internalType": "string",
          "name": "",
          "type": "string"
        }
      ],
      "stateMutability": "view",
      "type": "function"
    },
    {
      "inputs": [],
      "name": "owner",
      "outputs": [
        {
          "internalType": "address",
          "name": "",
          "type": "address"
        }
      ],
      "stateMutability": "view",
      "type": "function"
    },
    {
      "inputs": [
        {
          "internalType": "string",
          "name": "_plateNumber",
          "type": "string"
        }
      ],
      "name": "payFine",
      "outputs": [],
      "stateMutability": "payable",
      "type": "function"
    },
    {
      "inputs": [
        {
          "internalType": "string",
          "name": "",
          "type": "string"
        }
      ],
      "name": "plateNumberToIC",
      "outputs": [
        {
          "internalType": "string",
          "name": "",
          "type": "string"
        }
      ],
      "stateMutability": "view",
      "type": "function"
    },
    {
      "inputs": [
        {
          "internalType": "string",
          "name": "_icNumber",
          "type": "string"
        },
        {
          "internalType": "string",
          "name": "_plateNumber",
          "type": "string"
        }
      ],
      "name": "registerPlateNumber",
      "outputs": [],
      "stateMutability": "nonpayable",
      "type": "function"
    },
    {
      "inputs": [
        {
          "internalType": "uint256",
          "name": "_amount",
          "type": "uint256"
        }
      ],
      "name": "setDefaultFineAmount",
      "outputs": [],
      "stateMutability": "nonpayable",
      "type": "function"
    },
    {
      "inputs": [
        {
          "internalType": "string",
          "name": "",
          "type": "string"
        },
        {
          "internalType": "uint256",
          "name": "",
          "type": "uint256"
        }
      ],
      "name": "violationRecords",
      "outputs": [
        {
          "internalType": "string",
          "name": "plateNumber",
          "type": "string"
        },
        {
          "internalType": "string",
          "name": "color",
          "type": "string"
        },
        {
          "internalType": "string",
          "name": "brand",
          "type": "string"
        },
        {
          "internalType": "string",
          "name": "timestamp",
          "type": "string"
        },
        {
          "internalType": "bool",
          "name": "isPaid",
          "type": "bool"
        },
        {
          "internalType": "uint256",
          "name": "fineAmount",
          "type": "uint256"
        }
      ],
      "stateMutability": "view",
      "type": "function"
    },
    {
      "inputs": [],
      "name": "withdrawFunds",
      "outputs": [],
      "stateMutability": "nonpayable",
      "type": "function"
    }
  ],
  "bytecode": "0x6080604052662386f26fc10000600155348015601a57600080fd5b50336000806101000a81548173ffffffffffffffffffffffffffffffffffffffff021916908373ffffffffffffffffffffffffffffffffffffffff16021790555061253e8061006a6000396000f3fe6080604052600436106100dd5760003560e01c806393339caa1161007f578063e15937d511610059578063e15937d5146102dc578063ef7126c514610319578063f429d8c414610335578063ff41a32e14610372576100dd565b806393339caa14610239578063ab8d9a6014610276578063c510f547146102b3576100dd565b806340447c38116100bb57806340447c38146101785780634e26e1ca146101a15780635a21ca80146101cc5780638da5cb5b1461020e576100dd565b80630ecfca11146100e257806310702b131461011f57806324600fc314610161575b600080fd5b3480156100ee57600080fd5b506101096004803603810190610104919061187a565b61039b565b60405161011691906118dc565b60405180910390f35b34801561012b57600080fd5b5061014660048036038101906101419190611923565b6103c6565b60405161015896959493929190611a19565b60405180910390f35b34801561016d57600080fd5b50610176610721565b005b34801561018457600080fd5b5061019f600480360381019061019a9190611a96565b610818565b005b3480156101ad57600080fd5b506101b66109cd565b6040516101c391906118dc565b60405180910390f35b3480156101d857600080fd5b506101f360048036038101906101ee9190611923565b6109d3565b60405161020596959493929190611a19565b60405180910390f35b34801561021a57600080fd5b50610223610c6f565b6040516102309190611b4f565b60405180910390f35b34801561024557600080fd5b50610260600480360381019061025b919061187a565b610c93565b60405161026d9190611b6a565b60405180910390f35b34801561028257600080fd5b5061029d6004803603810190610298919061187a565b610d49565b6040516102aa9190611c98565b60405180910390f35b3480156102bf57600080fd5b506102da60048036038101906102d59190611cba565b610e40565b005b3480156102e857600080fd5b5061030360048036038101906102fe9190611923565b61107d565b6040516103109190611b6a565b60405180910390f35b610333600480360381019061032e919061187a565b61114c565b005b34801561034157600080fd5b5061035c6004803603810190610357919061187a565b61132d565b60405161036991906118dc565b60405180910390f35b34801561037e57600080fd5b5061039960048036038101906103949190611d91565b611688565b005b60006004826040516103ad9190611dfa565b9081526020016040518091039020805490509050919050565b6060806060806000806004886040516103df9190611dfa565b9081526020016040518091039020805490508710610432576040517f08c379a000000000000000000000000000000000000000000000000000000000815260040161042990611e5d565b60405180910390fd5b60006004896040516104449190611dfa565b9081526020016040518091039020888154811061046457610463611e7d565b5b90600052602060002090600602016040518060c001604052908160008201805461048d90611edb565b80601f01602080910402602001604051908101604052809291908181526020018280546104b990611edb565b80156105065780601f106104db57610100808354040283529160200191610506565b820191906000526020600020905b8154815290600101906020018083116104e957829003601f168201915b5050505050815260200160018201805461051f90611edb565b80601f016020809104026020016040519081016040528092919081815260200182805461054b90611edb565b80156105985780601f1061056d57610100808354040283529160200191610598565b820191906000526020600020905b81548152906001019060200180831161057b57829003601f168201915b505050505081526020016002820180546105b190611edb565b80601f01602080910402602001604051908101604052809291908181526020018280546105dd90611edb565b801561062a5780601f106105ff5761010080835404028352916020019161062a565b820191906000526020600020905b81548152906001019060200180831161060d57829003601f168201915b5050505050815260200160038201805461064390611edb565b80601f016020809104026020016040519081016040528092919081815260200182805461066f90611edb565b80156106bc5780601f10610691576101008083540402835291602001916106bc565b820191906000526020600020905b81548152906001019060200180831161069f57829003601f168201915b505050505081526020016004820160009054906101000a900460ff161515151581526020016005820154815250509050806000015181602001518260400151836060015184608001518560a00151965096509650965096509650509295509295509295565b60008054906101000a900473ffffffffffffffffffffffffffffffffffffffff1673ffffffffffffffffffffffffffffffffffffffff163373ffffffffffffffffffffffffffffffffffffffff16146107af576040517f08c379a00000000000000000000000000000000000000000000000000000000081526004016107a690611f7e565b60405180910390fd5b60008054906101000a900473ffffffffffffffffffffffffffffffffffffffff1673ffffffffffffffffffffffffffffffffffffffff166108fc479081150290604051600060405180830381858888f19350505050158015610815573d6000803e3d6000fd5b50565b60008054906101000a900473ffffffffffffffffffffffffffffffffffffffff1673ffffffffffffffffffffffffffffffffffffffff163373ffffffffffffffffffffffffffffffffffffffff16146108a6576040517f08c379a000000000000000000000000000000000000000000000000000000000815260040161089d90611f7e565b60405180910390fd5b60006003826040516108b89190611dfa565b908152602001604051809103902080546108d190611edb565b905014610913576040517f08c379a000000000000000000000000000000000000000000000000000000000815260040161090a90611fea565b60405180910390fd5b6002826040516109239190611dfa565b90815260200160405180910390208190806001815401808255809150506001900390600052602060002001600090919091909150908161096391906121b6565b50816003826040516109759190611dfa565b9081526020016040518091039020908161098f91906121b6565b507f877f281c60f83e3e5596c715ab65df162333e886a60b5c652a49653b8601730482826040516109c1929190612288565b60405180910390a15050565b60015481565b6004828051602081018201805184825260208301602085012081835280955050505050508181548110610a0557600080fd5b906000526020600020906006020160009150915050806000018054610a2990611edb565b80601f0160208091040260200160405190810160405280929190818152602001828054610a5590611edb565b8015610aa25780601f10610a7757610100808354040283529160200191610aa2565b820191906000526020600020905b815481529060010190602001808311610a8557829003601f168201915b505050505090806001018054610ab790611edb565b80601f0160208091040260200160405190810160405280929190818152602001828054610ae390611edb565b8015610b305780601f10610b0557610100808354040283529160200191610b30565b820191906000526020600020905b815481529060010190602001808311610b1357829003601f168201915b505050505090806002018054610b4590611edb565b80601f0160208091040260200160405190810160405280929190818152602001828054610b7190611edb565b8015610bbe5780601f10610b9357610100808354040283529160200191610bbe565b820191906000526020600020905b815481529060010190602001808311610ba157829003601f168201915b505050505090806003018054610bd390611edb565b80601f0160208091040260200160405190810160405280929190818152602001828054610bff90611edb565b8015610c4c5780601f10610c2157610100808354040283529160200191610c4c565b820191906000526020600020905b815481529060010190602001808311610c2f57829003601f168201915b5050505050908060040160009054906101000a900460ff16908060050154905086565b60008054906101000a900473ffffffffffffffffffffffffffffffffffffffff1681565b6003818051602081018201805184825260208301602085012081835280955050505050506000915090508054610cc890611edb565b80601f0160208091040260200160405190810160405280929190818152602001828054610cf490611edb565b8015610d415780601f10610d1657610100808354040283529160200191610d41565b820191906000526020600020905b815481529060010190602001808311610d2457829003601f168201915b505050505081565b6060600282604051610d5b9190611dfa565b9081526020016040518091039020805480602002602001604051908101604052809291908181526020016000905b82821015610e35578382906000526020600020018054610da890611edb565b80601f0160208091040260200160405190810160405280929190818152602001828054610dd490611edb565b8015610e215780601f10610df657610100808354040283529160200191610e21565b820191906000526020600020905b815481529060010190602001808311610e0457829003601f168201915b505050505081526020019060010190610d89565b505050509050919050565b60008054906101000a900473ffffffffffffffffffffffffffffffffffffffff1673ffffffffffffffffffffffffffffffffffffffff163373ffffffffffffffffffffffffffffffffffffffff1614610ece576040517f08c379a0000000000000000000000000000000000000000000000000000000008152600401610ec590611f7e565b60405180910390fd5b6000600385604051610ee09190611dfa565b90815260200160405180910390208054610ef990611edb565b905011610f3b576040517f08c379a0000000000000000000000000000000000000000000000000000000008152600401610f329061230b565b60405180910390fd5b60006040518060c001604052808681526020018581526020018481526020018381526020016000151581526020016001548152509050600485604051610f819190611dfa565b90815260200160405180910390208190806001815401808255809150506001900390600052602060002090600602016000909190919091506000820151816000019081610fce91906121b6565b506020820151816001019081610fe491906121b6565b506040820151816002019081610ffa91906121b6565b50606082015181600301908161101091906121b6565b5060808201518160040160006101000a81548160ff02191690831515021790555060a0820151816005015550507f75278b119da3192756e8a7523d48ff82bb859a7276a6318a8239c73e4a064792854260405161106e92919061232b565b60405180910390a15050505050565b60028280516020810182018051848252602083016020850120818352809550505050505081815481106110af57600080fd5b906000526020600020016000915091505080546110cb90611edb565b80601f01602080910402602001604051908101604052809291908181526020018280546110f790611edb565b80156111445780601f1061111957610100808354040283529160200191611144565b820191906000526020600020905b81548152906001019060200180831161112757829003601f168201915b505050505081565b600060048260405161115e9190611dfa565b9081526020016040518091039020905060006111798361132d565b9050600081116111be576040517f08c379a00000000000000000000000000000000000000000000000000000000081526004016111b5906123a7565b60405180910390fd5b80341015611201576040517f08c379a00000000000000000000000000000000000000000000000000000000081526004016111f890612413565b60405180910390fd5b60005b82805490508110156112915782818154811061122357611222611e7d565b5b906000526020600020906006020160040160009054906101000a900460ff1661128457600183828154811061125b5761125a611e7d565b5b906000526020600020906006020160040160006101000a81548160ff0219169083151502179055505b8080600101915050611204565b507f7f988c94264accb15250ee0d6b2704f146f1662cad992874d2bb55a670eb0b118334426040516112c593929190612433565b60405180910390a180341115611328573373ffffffffffffffffffffffffffffffffffffffff166108fc82346112fb91906124a0565b9081150290604051600060405180830381858888f19350505050158015611326573d6000803e3d6000fd5b505b505050565b6000806004836040516113409190611dfa565b9081526020016040518091039020805480602002602001604051908101604052809291908181526020016000905b8282101561160d57838290600052602060002090600602016040518060c00160405290816000820180546113a190611edb565b80601f01602080910402602001604051908101604052809291908181526020018280546113cd90611edb565b801561141a5780601f106113ef5761010080835404028352916020019161141a565b820191906000526020600020905b8154815290600101906020018083116113fd57829003601f168201915b5050505050815260200160018201805461143390611edb565b80601f016020809104026020016040519081016040528092919081815260200182805461145f90611edb565b80156114ac5780601f10611481576101008083540402835291602001916114ac565b820191906000526020600020905b81548152906001019060200180831161148f57829003601f168201915b505050505081526020016002820180546114c590611edb565b80601f01602080910402602001604051908101604052809291908181526020018280546114f190611edb565b801561153e5780601f106115135761010080835404028352916020019161153e565b820191906000526020600020905b81548152906001019060200180831161152157829003601f168201915b5050505050815260200160038201805461155790611edb565b80601f016020809104026020016040519081016040528092919081815260200182805461158390611edb565b80156115d05780601f106115a5576101008083540402835291602001916115d0565b820191906000526020600020905b8154815290600101906020018083116115b357829003601f168201915b505050505081526020016004820160009054906101000a900460ff161515151581526020016005820154815250508152602001906001019061136e565b5050505090506000805b825181101561167d5782818151811061163357611632611e7d565b5b6020026020010151608001516116705782818151811061165657611655611e7d565b5b602002602001015160a001518261166d91906124d4565b91505b8080600101915050611617565b508092505050919050565b60008054906101000a900473ffffffffffffffffffffffffffffffffffffffff1673ffffffffffffffffffffffffffffffffffffffff163373ffffffffffffffffffffffffffffffffffffffff1614611716576040517f08c379a000000000000000000000000000000000000000000000000000000000815260040161170d90611f7e565b60405180910390fd5b8060018190555050565b6000604051905090565b600080fd5b600080fd5b600080fd5b600080fd5b6000601f19601f8301169050919050565b7f4e487b7100000000000000000000000000000000000000000000000000000000600052604160045260246000fd5b6117878261173e565b810181811067ffffffffffffffff821117156117a6576117a561174f565b5b80604052505050565b60006117b9611720565b90506117c5828261177e565b919050565b600067ffffffffffffffff8211156117e5576117e461174f565b5b6117ee8261173e565b9050602081019050919050565b82818337600083830152505050565b600061181d611818846117ca565b6117af565b90508281526020810184848401111561183957611838611739565b5b6118448482856117fb565b509392505050565b600082601f83011261186157611860611734565b5b813561187184826020860161180a565b91505092915050565b6000602082840312156118905761188f61172a565b5b600082013567ffffffffffffffff8111156118ae576118ad61172f565b5b6118ba8482850161184c565b91505092915050565b6000819050919050565b6118d6816118c3565b82525050565b60006020820190506118f160008301846118cd565b92915050565b611900816118c3565b811461190b57600080fd5b50565b60008135905061191d816118f7565b92915050565b6000806040838503121561193a5761193961172a565b5b600083013567ffffffffffffffff8111156119585761195761172f565b5b6119648582860161184c565b92505060206119758582860161190e565b9150509250929050565b600081519050919050565b600082825260208201905092915050565b60005b838110156119b957808201518184015260208101905061199e565b60008484015250505050565b60006119d08261197f565b6119da818561198a565b93506119ea81856020860161199b565b6119f38161173e565b840191505092915050565b60008115159050919050565b611a13816119fe565b82525050565b600060c0820190508181036000830152611a3381896119c5565b90508181036020830152611a4781886119c5565b90508181036040830152611a5b81876119c5565b90508181036060830152611a6f81866119c5565b9050611a7e6080830185611a0a565b611a8b60a08301846118cd565b979650505050505050565b60008060408385031215611aad57611aac61172a565b5b600083013567ffffffffffffffff811115611acb57611aca61172f565b5b611ad78582860161184c565b925050602083013567ffffffffffffffff811115611af857611af761172f565b5b611b048582860161184c565b9150509250929050565b600073ffffffffffffffffffffffffffffffffffffffff82169050919050565b6000611b3982611b0e565b9050919050565b611b4981611b2e565b82525050565b6000602082019050611b646000830184611b40565b92915050565b60006020820190508181036000830152611b8481846119c5565b905092915050565b600081519050919050565b600082825260208201905092915050565b6000819050602082019050919050565b600082825260208201905092915050565b6000611bd48261197f565b611bde8185611bb8565b9350611bee81856020860161199b565b611bf78161173e565b840191505092915050565b6000611c0e8383611bc9565b905092915050565b6000602082019050919050565b6000611c2e82611b8c565b611c388185611b97565b935083602082028501611c4a85611ba8565b8060005b85811015611c865784840389528151611c678582611c02565b9450611c7283611c16565b925060208a01995050600181019050611c4e565b50829750879550505050505092915050565b60006020820190508181036000830152611cb28184611c23565b905092915050565b60008060008060808587031215611cd457611cd361172a565b5b600085013567ffffffffffffffff811115611cf257611cf161172f565b5b611cfe8782880161184c565b945050602085013567ffffffffffffffff811115611d1f57611d1e61172f565b5b611d2b8782880161184c565b935050604085013567ffffffffffffffff811115611d4c57611d4b61172f565b5b611d588782880161184c565b925050606085013567ffffffffffffffff811115611d7957611d7861172f565b5b611d858782880161184c565b91505092959194509250565b600060208284031215611da757611da661172a565b5b6000611db58482850161190e565b91505092915050565b600081905092915050565b6000611dd48261197f565b611dde8185611dbe565b9350611dee81856020860161199b565b80840191505092915050565b6000611e068284611dc9565b915081905092915050565b7f496e76616c696420696e64657800000000000000000000000000000000000000600082015250565b6000611e47600d8361198a565b9150611e5282611e11565b602082019050919050565b60006020820190508181036000830152611e7681611e3a565b9050919050565b7f4e487b7100000000000000000000000000000000000000000000000000000000600052603260045260246000fd5b7f4e487b7100000000000000000000000000000000000000000000000000000000600052602260045260246000fd5b60006002820490506001821680611ef357607f821691505b602082108103611f0657611f05611eac565b5b50919050565b7f4f6e6c79206f776e65722063616e2063616c6c20746869732066756e6374696f60008201527f6e00000000000000000000000000000000000000000000000000000000000000602082015250565b6000611f6860218361198a565b9150611f7382611f0c565b604082019050919050565b60006020820190508181036000830152611f9781611f5b565b9050919050565b7f506c617465206e756d62657220616c7265616479207265676973746572656400600082015250565b6000611fd4601f8361198a565b9150611fdf82611f9e565b602082019050919050565b6000602082019050818103600083015261200381611fc7565b9050919050565b60008190508160005260206000209050919050565b60006020601f8301049050919050565b600082821b905092915050565b60006008830261206c7fffffffffffffffffffffffffffffffffffffffffffffffffffffffffffffffff8261202f565b612076868361202f565b95508019841693508086168417925050509392505050565b6000819050919050565b60006120b36120ae6120a9846118c3565b61208e565b6118c3565b9050919050565b6000819050919050565b6120cd83612098565b6120e16120d9826120ba565b84845461203c565b825550505050565b600090565b6120f66120e9565b6121018184846120c4565b505050565b5b818110156121255761211a6000826120ee565b600181019050612107565b5050565b601f82111561216a5761213b8161200a565b6121448461201f565b81016020851015612153578190505b61216761215f8561201f565b830182612106565b50505b505050565b600082821c905092915050565b600061218d6000198460080261216f565b1980831691505092915050565b60006121a6838361217c565b9150826002028217905092915050565b6121bf8261197f565b67ffffffffffffffff8111156121d8576121d761174f565b5b6121e28254611edb565b6121ed828285612129565b600060209050601f831160018114612220576000841561220e578287015190505b612218858261219a565b865550612280565b601f19841661222e8661200a565b60005b8281101561225657848901518255600182019150602085019450602081019050612231565b86831015612273578489015161226f601f89168261217c565b8355505b6001600288020188555050505b505050505050565b600060408201905081810360008301526122a281856119c5565b905081810360208301526122b681846119c5565b90509392505050565b7f506c617465206e756d626572206e6f7420726567697374657265640000000000600082015250565b60006122f5601b8361198a565b9150612300826122bf565b602082019050919050565b60006020820190508181036000830152612324816122e8565b9050919050565b6000604082019050818103600083015261234581856119c5565b905061235460208301846118cd565b9392505050565b7f4e6f20756e706169642066696e65730000000000000000000000000000000000600082015250565b6000612391600f8361198a565b915061239c8261235b565b602082019050919050565b600060208201905081810360008301526123c081612384565b9050919050565b7f496e73756666696369656e74207061796d656e74000000000000000000000000600082015250565b60006123fd60148361198a565b9150612408826123c7565b602082019050919050565b6000602082019050818103600083015261242c816123f0565b9050919050565b6000606082019050818103600083015261244d81866119c5565b905061245c60208301856118cd565b61246960408301846118cd565b949350505050565b7f4e487b7100000000000000000000000000000000000000000000000000000000600052601160045260246000fd5b60006124ab826118c3565b91506124b6836118c3565b92508282039050818111156124ce576124cd612471565b5b92915050565b60006124df826118c3565b91506124ea836118c3565b925082820190508082111561250257612501612471565b5b9291505056fea2646970667358221220135403c5a5b583da4fd63d7533f110462222b8347b3107e058e0109b0b44e5a464736f6c634300081b0033",
  "linkReferences": {},
  "deployedLinkReferences": {}
}